{
  "_format": "hh-sol-artifact-1",
  "contractName": "DistributionQueue",
  "sourceName": "contracts/DistributionQueue.sol",
  "abi": [
    {
      "inputs": [
        {
          "internalType": "address",
          "name": "languages_",
          "type": "address"
        }
      ],
      "stateMutability": "nonpayable",
      "type": "constructor"
    },
    {
      "inputs": [],
      "name": "InvalidLanguageCode",
      "type": "error"
    },
    {
      "anonymous": false,
      "inputs": [
        {
          "components": [
            {
              "internalType": "string",
              "name": "languageCode",
              "type": "string"
            },
            {
              "internalType": "string",
              "name": "androidId",
              "type": "string"
            },
            {
              "internalType": "uint256",
              "name": "timestamp",
              "type": "uint256"
            },
            {
              "internalType": "address",
              "name": "distributor",
              "type": "address"
            }
          ],
          "indexed": false,
          "internalType": "struct Distribution",
          "name": "",
          "type": "tuple"
        }
      ],
      "name": "DistributionAdded",
      "type": "event"
    },
    {
      "anonymous": false,
      "inputs": [
        {
          "indexed": false,
          "internalType": "address",
          "name": "",
          "type": "address"
        }
      ],
      "name": "LanguagesUpdated",
      "type": "event"
    },
    {
      "anonymous": false,
      "inputs": [
        {
          "indexed": false,
          "internalType": "address",
          "name": "",
          "type": "address"
        }
      ],
      "name": "OwnerUpdated",
      "type": "event"
    },
    {
      "anonymous": false,
      "inputs": [
        {
          "indexed": false,
          "internalType": "address",
          "name": "",
          "type": "address"
        }
      ],
      "name": "QueueHandlerUpdated",
      "type": "event"
    },
    {
      "inputs": [
        {
          "internalType": "string",
          "name": "languageCode",
          "type": "string"
        },
        {
          "internalType": "string",
          "name": "androidId",
          "type": "string"
        }
      ],
      "name": "addDistribution",
      "outputs": [],
      "stateMutability": "nonpayable",
      "type": "function"
    },
    {
      "inputs": [],
      "name": "dequeue",
      "outputs": [
        {
          "components": [
            {
              "internalType": "string",
              "name": "languageCode",
              "type": "string"
            },
            {
              "internalType": "string",
              "name": "androidId",
              "type": "string"
            },
            {
              "internalType": "uint256",
              "name": "timestamp",
              "type": "uint256"
            },
            {
              "internalType": "address",
              "name": "distributor",
              "type": "address"
            }
          ],
          "internalType": "struct Distribution",
          "name": "",
          "type": "tuple"
        }
      ],
      "stateMutability": "nonpayable",
      "type": "function"
    },
    {
      "inputs": [],
      "name": "getLength",
      "outputs": [
        {
          "internalType": "uint256",
          "name": "",
          "type": "uint256"
        }
      ],
      "stateMutability": "view",
      "type": "function"
    },
    {
      "inputs": [],
      "name": "languages",
      "outputs": [
        {
          "internalType": "contract ILanguages",
          "name": "",
          "type": "address"
        }
      ],
      "stateMutability": "view",
      "type": "function"
    },
    {
      "inputs": [],
      "name": "owner",
      "outputs": [
        {
          "internalType": "address",
          "name": "",
          "type": "address"
        }
      ],
      "stateMutability": "view",
      "type": "function"
    },
    {
      "inputs": [
        {
          "internalType": "uint24",
          "name": "",
          "type": "uint24"
        }
      ],
      "name": "queue",
      "outputs": [
        {
          "internalType": "string",
          "name": "languageCode",
          "type": "string"
        },
        {
          "internalType": "string",
          "name": "androidId",
          "type": "string"
        },
        {
          "internalType": "uint256",
          "name": "timestamp",
          "type": "uint256"
        },
        {
          "internalType": "address",
          "name": "distributor",
          "type": "address"
        }
      ],
      "stateMutability": "view",
      "type": "function"
    },
    {
      "inputs": [],
      "name": "queueHandler",
      "outputs": [
        {
          "internalType": "address",
          "name": "",
          "type": "address"
        }
      ],
      "stateMutability": "view",
      "type": "function"
    },
    {
      "inputs": [],
      "name": "queueNumberFront",
      "outputs": [
        {
          "internalType": "uint24",
          "name": "",
          "type": "uint24"
        }
      ],
      "stateMutability": "view",
      "type": "function"
    },
    {
      "inputs": [],
      "name": "queueNumberNext",
      "outputs": [
        {
          "internalType": "uint24",
          "name": "",
          "type": "uint24"
        }
      ],
      "stateMutability": "view",
      "type": "function"
    },
    {
      "inputs": [
        {
          "internalType": "address",
          "name": "languages_",
          "type": "address"
        }
      ],
      "name": "updateLanguages",
      "outputs": [],
      "stateMutability": "nonpayable",
      "type": "function"
    },
    {
      "inputs": [
        {
          "internalType": "address",
          "name": "owner_",
          "type": "address"
        }
      ],
      "name": "updateOwner",
      "outputs": [],
      "stateMutability": "nonpayable",
      "type": "function"
    },
    {
      "inputs": [
        {
          "internalType": "address",
          "name": "queueHandler_",
          "type": "address"
        }
      ],
      "name": "updateQueueHandler",
      "outputs": [],
      "stateMutability": "nonpayable",
      "type": "function"
    }
  ],
  "bytecode": "0x60806040526004805465ffffffffffff19166301000001179055348015602457600080fd5b50604051610fc4380380610fc48339810160408190526041916073565b60008054336001600160a01b031991821617909155600180549091166001600160a01b039290921691909117905560a1565b600060208284031215608457600080fd5b81516001600160a01b0381168114609a57600080fd5b9392505050565b610f14806100b06000396000f3fe608060405234801561001057600080fd5b50600436106100b45760003560e01c80638849a433116100715780638849a4331461015d5780638da5cb5b14610170578063957908d114610183578063be1c766b14610198578063bea6a849146101ae578063c62a7317146101c157600080fd5b806313ae19b3146100b95780631a7d661f146100ce5780632972a64c146100e15780632fb0b65914610111578063423e364914610134578063880cdc311461014a575b600080fd5b6100cc6100c7366004610adc565b6101e4565b005b6100cc6100dc366004610b55565b6102b2565b6001546100f4906001600160a01b031681565b6040516001600160a01b0390911681526020015b60405180910390f35b6004546101209062ffffff1681565b60405162ffffff9091168152602001610108565b600454610120906301000000900462ffffff1681565b6100cc610158366004610adc565b610414565b6002546100f4906001600160a01b031681565b6000546100f4906001600160a01b031681565b61018b6104cf565b6040516101089190610c0c565b6101a06107a8565b604051908152602001610108565b6100cc6101bc366004610adc565b6107d1565b6101d46101cf366004610c71565b610890565b6040516101089493929190610c96565b6000546001600160a01b0316331461025d5760405162461bcd60e51b815260206004820152603160248201527f4f6e6c7920746865206f776e65722063616e20736574207468652060717565756044820152706548616e646c657260206164647265737360781b60648201526084015b60405180910390fd5b600280546001600160a01b0319166001600160a01b0383169081179091556040519081527f05ec78f77a1d48e6e47c6b09252624424c3402b3a8e99a48e59f0d710d7e7742906020015b60405180910390a150565b60015460405163032ae28760e51b81526001600160a01b039091169063655c50e0906102e49087908790600401610cdd565b602060405180830381865afa158015610301573d6000803e3d6000fd5b505050506040513d601f19601f820116820180604052508101906103259190610d0c565b610342576040516342330a5960e11b815260040160405180910390fd5b6040805160a06020601f87018190040282018101909252608081018581526000928291908890889081908501838280828437600092019190915250505090825250604080516020601f8701819004810282018101909252858152918101919086908690819084018382808284376000920191909152505050908252504260208201523360409091015290506103d6816109d2565b7fe20de5d5eb69194b5940b1f9b662b126c26bfe912646aaf8608c13fdfef362a9816040516104059190610c0c565b60405180910390a15050505050565b6000546001600160a01b031633146104815760405162461bcd60e51b815260206004820152602a60248201527f4f6e6c79207468652063757272656e74206f776e65722063616e207365742061604482015269103732bb9037bbb732b960b11b6064820152608401610254565b600080546001600160a01b0319166001600160a01b0383169081179091556040519081527f4ffd725fc4a22075e9ec71c59edf9c38cdeb588a91b24fc5b61388c5be41282b906020016102a7565b610503604051806080016040528060608152602001606081526020016000815260200160006001600160a01b031681525090565b6002546001600160a01b031633146105765760405162461bcd60e51b815260206004820152603060248201527f4f6e6c79207468652071756575652068616e646c65722063616e2072656d6f7660448201526f652066726f6d2074686520717565756560801b6064820152608401610254565b60006105806107a8565b116105be5760405162461bcd60e51b815260206004820152600e60248201526d517565756520697320656d70747960901b6044820152606401610254565b60045462ffffff166000908152600360205260408082208151608081019092528054829082906105ed90610d2e565b80601f016020809104026020016040519081016040528092919081815260200182805461061990610d2e565b80156106665780601f1061063b57610100808354040283529160200191610666565b820191906000526020600020905b81548152906001019060200180831161064957829003601f168201915b5050505050815260200160018201805461067f90610d2e565b80601f01602080910402602001604051908101604052809291908181526020018280546106ab90610d2e565b80156106f85780601f106106cd576101008083540402835291602001916106f8565b820191906000526020600020905b8154815290600101906020018083116106db57829003601f168201915b505050918352505060028201546020808301919091526003928301546001600160a01b031660409283015260045462ffffff16600090815292905281209192506107428282610a86565b610750600183016000610a86565b50600060028201819055600390910180546001600160a01b0319169055600480546001929061078590849062ffffff16610d7e565b92506101000a81548162ffffff021916908362ffffff1602179055508091505090565b6004546000906107c79062ffffff808216916301000000900416610d9f565b62ffffff16905090565b6000546001600160a01b031633146108425760405162461bcd60e51b815260206004820152602e60248201527f4f6e6c7920746865206f776e65722063616e207365742074686520606c616e6760448201526d756167657360206164647265737360901b6064820152608401610254565b600180546001600160a01b0319166001600160a01b0383169081179091556040519081527fa27bcd9ea6a1be02da6027dac62bc65e5a0f8e180f47bc6e3bfbee065b69b4f7906020016102a7565b6003602052600090815260409020805481906108ab90610d2e565b80601f01602080910402602001604051908101604052809291908181526020018280546108d790610d2e565b80156109245780601f106108f957610100808354040283529160200191610924565b820191906000526020600020905b81548152906001019060200180831161090757829003601f168201915b50505050509080600101805461093990610d2e565b80601f016020809104026020016040519081016040528092919081815260200182805461096590610d2e565b80156109b25780601f10610987576101008083540402835291602001916109b2565b820191906000526020600020905b81548152906001019060200180831161099557829003601f168201915b5050505060028301546003909301549192916001600160a01b0316905084565b6004546301000000900462ffffff16600090815260036020526040902081518291908190610a009082610e1f565b5060208201516001820190610a159082610e1f565b5060408201516002820155606090910151600391820180546001600160a01b0319166001600160a01b039092169190911790556004805460019290610a679084906301000000900462ffffff16610d7e565b92506101000a81548162ffffff021916908362ffffff16021790555050565b508054610a9290610d2e565b6000825580601f10610aa2575050565b601f016020900490600052602060002090810190610ac09190610ac3565b50565b5b80821115610ad85760008155600101610ac4565b5090565b600060208284031215610aee57600080fd5b81356001600160a01b0381168114610b0557600080fd5b9392505050565b60008083601f840112610b1e57600080fd5b50813567ffffffffffffffff811115610b3657600080fd5b602083019150836020828501011115610b4e57600080fd5b9250929050565b60008060008060408587031215610b6b57600080fd5b843567ffffffffffffffff811115610b8257600080fd5b610b8e87828801610b0c565b909550935050602085013567ffffffffffffffff811115610bae57600080fd5b610bba87828801610b0c565b95989497509550505050565b6000815180845260005b81811015610bec57602081850181015186830182015201610bd0565b506000602082860101526020601f19601f83011685010191505092915050565b602081526000825160806020840152610c2860a0840182610bc6565b90506020840151601f19848303016040850152610c458282610bc6565b6040860151606086810191909152909501516001600160a01b0316608090940193909352509192915050565b600060208284031215610c8357600080fd5b813562ffffff81168114610b0557600080fd5b608081526000610ca96080830187610bc6565b8281036020840152610cbb8187610bc6565b604084019590955250506001600160a01b039190911660609091015292915050565b60208152816020820152818360408301376000818301604090810191909152601f909201601f19160101919050565b600060208284031215610d1e57600080fd5b81518015158114610b0557600080fd5b600181811c90821680610d4257607f821691505b602082108103610d6257634e487b7160e01b600052602260045260246000fd5b50919050565b634e487b7160e01b600052601160045260246000fd5b62ffffff8181168382160190811115610d9957610d99610d68565b92915050565b62ffffff8281168282160390811115610d9957610d99610d68565b634e487b7160e01b600052604160045260246000fd5b601f821115610e1a57806000526020600020601f840160051c81016020851015610df75750805b601f840160051c820191505b81811015610e175760008155600101610e03565b50505b505050565b815167ffffffffffffffff811115610e3957610e39610dba565b610e4d81610e478454610d2e565b84610dd0565b6020601f821160018114610e815760008315610e695750848201515b600019600385901b1c1916600184901b178455610e17565b600084815260208120601f198516915b82811015610eb15787850151825560209485019460019092019101610e91565b5084821015610ecf5786840151600019600387901b60f8161c191681555b50505050600190811b0190555056fea2646970667358221220092e912aa282a2330fecf84b5b35b1f86dfe62db925fa93a8fcb1445913765e764736f6c634300081c0033",
  "linkReferences": {},
  "deployedLinkReferences": {}
}